{
  "address": "0xe7f1725E7734CE288F8367e1Bb143E90bb3F0512",
  "abi": [
    {
      "inputs": [
        {
          "internalType": "address",
          "name": "priceFeedAddress",
          "type": "address"
        }
      ],
      "stateMutability": "nonpayable",
      "type": "constructor"
    },
    {
      "inputs": [],
      "name": "FundMe__NotOwner",
      "type": "error"
    },
    {
      "inputs": [],
      "name": "MINIMUM_USD",
      "outputs": [
        {
          "internalType": "uint256",
          "name": "",
          "type": "uint256"
        }
      ],
      "stateMutability": "view",
      "type": "function"
    },
    {
      "inputs": [],
      "name": "cheaperWithdraw",
      "outputs": [],
      "stateMutability": "payable",
      "type": "function"
    },
    {
      "inputs": [],
      "name": "fund",
      "outputs": [],
      "stateMutability": "payable",
      "type": "function"
    },
    {
      "inputs": [
        {
          "internalType": "address",
          "name": "funder",
          "type": "address"
        }
      ],
      "name": "getAddressToAmountFunded",
      "outputs": [
        {
          "internalType": "uint256",
          "name": "",
          "type": "uint256"
        }
      ],
      "stateMutability": "view",
      "type": "function"
    },
    {
      "inputs": [
        {
          "internalType": "uint256",
          "name": "index",
          "type": "uint256"
        }
      ],
      "name": "getFunder",
      "outputs": [
        {
          "internalType": "address",
          "name": "",
          "type": "address"
        }
      ],
      "stateMutability": "view",
      "type": "function"
    },
    {
      "inputs": [],
      "name": "getOwner",
      "outputs": [
        {
          "internalType": "address",
          "name": "",
          "type": "address"
        }
      ],
      "stateMutability": "view",
      "type": "function"
    },
    {
      "inputs": [],
      "name": "getPriceFeed",
      "outputs": [
        {
          "internalType": "contract AggregatorV3Interface",
          "name": "",
          "type": "address"
        }
      ],
      "stateMutability": "view",
      "type": "function"
    },
    {
      "inputs": [
        {
          "internalType": "address",
          "name": "",
          "type": "address"
        }
      ],
      "name": "s_addressToAmountFunded",
      "outputs": [
        {
          "internalType": "uint256",
          "name": "",
          "type": "uint256"
        }
      ],
      "stateMutability": "view",
      "type": "function"
    },
    {
      "inputs": [],
      "name": "s_priceFeed",
      "outputs": [
        {
          "internalType": "contract AggregatorV3Interface",
          "name": "",
          "type": "address"
        }
      ],
      "stateMutability": "view",
      "type": "function"
    },
    {
      "inputs": [],
      "name": "withdraw",
      "outputs": [],
      "stateMutability": "nonpayable",
      "type": "function"
    }
  ],
  "transactionHash": "0xebdd6f4b2385ef83be8b3331c29952fe887be752a4aa253c37e279b426e5fdb3",
  "args": [
    "0x5FbDB2315678afecb367f032d93F642f64180aa3"
  ],
  "numDeployments": 1,
  "solcInputHash": "4b840788964bec35ec752e0a72582e87",
  "bytecode": "0x60a06040523480156200001157600080fd5b506040516200138e3803806200138e833981810160405281019062000037919062000120565b3373ffffffffffffffffffffffffffffffffffffffff1660808173ffffffffffffffffffffffffffffffffffffffff1660601b8152505080600260006101000a81548173ffffffffffffffffffffffffffffffffffffffff021916908373ffffffffffffffffffffffffffffffffffffffff1602179055505062000152565b600080fd5b600073ffffffffffffffffffffffffffffffffffffffff82169050919050565b6000620000e882620000bb565b9050919050565b620000fa81620000db565b81146200010657600080fd5b50565b6000815190506200011a81620000ef565b92915050565b600060208284031215620001395762000138620000b6565b5b6000620001498482850162000109565b91505092915050565b60805160601c61120862000186600039600081816102ad015281816104fc01528181610687015261087d01526112086000f3fe6080604052600436106100915760003560e01c8063893d20e811610059578063893d20e81461017d5780639e87a5cd146101a8578063b60d4288146101d3578063be2693f0146101dd578063d7b4750c146101e757610091565b80630343fb25146100965780630ec3b027146100d35780631bf6132d146100fe5780633ccfd60b1461013b5780636b69a59214610152575b600080fd5b3480156100a257600080fd5b506100bd60048036038101906100b89190610b40565b610224565b6040516100ca9190610b86565b60405180910390f35b3480156100df57600080fd5b506100e861026d565b6040516100f59190610c00565b60405180910390f35b34801561010a57600080fd5b5061012560048036038101906101209190610b40565b610293565b6040516101329190610b86565b60405180910390f35b34801561014757600080fd5b506101506102ab565b005b34801561015e57600080fd5b506101676104eb565b6040516101749190610b86565b60405180910390f35b34801561018957600080fd5b506101926104f8565b60405161019f9190610c2a565b60405180910390f35b3480156101b457600080fd5b506101bd610520565b6040516101ca9190610c00565b60405180910390f35b6101db61054a565b005b6101e5610685565b005b3480156101f357600080fd5b5061020e60048036038101906102099190610c71565b610913565b60405161021b9190610c2a565b60405180910390f35b6000600160008373ffffffffffffffffffffffffffffffffffffffff1673ffffffffffffffffffffffffffffffffffffffff168152602001908152602001600020549050919050565b600260009054906101000a900473ffffffffffffffffffffffffffffffffffffffff1681565b60016020528060005260406000206000915090505481565b7f000000000000000000000000000000000000000000000000000000000000000073ffffffffffffffffffffffffffffffffffffffff163373ffffffffffffffffffffffffffffffffffffffff1614610330576040517f579610db00000000000000000000000000000000000000000000000000000000815260040160405180910390fd5b60005b6000805490508110156103db57600080828154811061035557610354610c9e565b5b9060005260206000200160009054906101000a900473ffffffffffffffffffffffffffffffffffffffff1690506000600160008373ffffffffffffffffffffffffffffffffffffffff1673ffffffffffffffffffffffffffffffffffffffff168152602001908152602001600020819055505080806103d390610cfc565b915050610333565b50600067ffffffffffffffff8111156103f7576103f6610d45565b5b6040519080825280602002602001820160405280156104255781602001602082028036833780820191505090505b506000908051906020019061043b929190610a36565b5060003373ffffffffffffffffffffffffffffffffffffffff164760405161046290610da5565b60006040518083038185875af1925050503d806000811461049f576040519150601f19603f3d011682016040523d82523d6000602084013e6104a4565b606091505b50509050806104e8576040517f08c379a00000000000000000000000000000000000000000000000000000000081526004016104df90610e17565b60405180910390fd5b50565b6802b5e3af16b188000081565b60007f0000000000000000000000000000000000000000000000000000000000000000905090565b6000600260009054906101000a900473ffffffffffffffffffffffffffffffffffffffff16905090565b6802b5e3af16b1880000610589600260009054906101000a900473ffffffffffffffffffffffffffffffffffffffff163461095a90919063ffffffff16565b10156105ca576040517f08c379a00000000000000000000000000000000000000000000000000000000081526004016105c190610e83565b60405180910390fd5b6000339080600181540180825580915050600190039060005260206000200160009091909190916101000a81548173ffffffffffffffffffffffffffffffffffffffff021916908373ffffffffffffffffffffffffffffffffffffffff16021790555034600160003373ffffffffffffffffffffffffffffffffffffffff1673ffffffffffffffffffffffffffffffffffffffff168152602001908152602001600020600082825461067c9190610ea3565b92505081905550565b7f000000000000000000000000000000000000000000000000000000000000000073ffffffffffffffffffffffffffffffffffffffff163373ffffffffffffffffffffffffffffffffffffffff161461070a576040517f579610db00000000000000000000000000000000000000000000000000000000815260040160405180910390fd5b60008080548060200260200160405190810160405280929190818152602001828054801561078d57602002820191906000526020600020905b8160009054906101000a900473ffffffffffffffffffffffffffffffffffffffff1673ffffffffffffffffffffffffffffffffffffffff1681526020019060010190808311610743575b5050505050905060005b81518110156108185760008282815181106107b5576107b4610c9e565b5b602002602001015190506000600160008373ffffffffffffffffffffffffffffffffffffffff1673ffffffffffffffffffffffffffffffffffffffff1681526020019081526020016000208190555050808061081090610cfc565b915050610797565b50600067ffffffffffffffff81111561083457610833610d45565b5b6040519080825280602002602001820160405280156108625781602001602082028036833780820191505090505b5060009080519060200190610878929190610a36565b5060007f000000000000000000000000000000000000000000000000000000000000000073ffffffffffffffffffffffffffffffffffffffff16476040516108bf90610da5565b60006040518083038185875af1925050503d80600081146108fc576040519150601f19603f3d011682016040523d82523d6000602084013e610901565b606091505b505090508061090f57600080fd5b5050565b600080828154811061092857610927610c9e565b5b9060005260206000200160009054906101000a900473ffffffffffffffffffffffffffffffffffffffff169050919050565b60008061096683610996565b90506000670de0b6b3a7640000858361097f9190610ef9565b6109899190610f82565b9050809250505092915050565b6000808273ffffffffffffffffffffffffffffffffffffffff1663feaf968c6040518163ffffffff1660e01b815260040160a06040518083038186803b1580156109df57600080fd5b505afa1580156109f3573d6000803e3d6000fd5b505050506040513d601f19601f82011682018060405250810190610a179190611040565b5050509150506402540be40081610a2e91906110bb565b915050919050565b828054828255906000526020600020908101928215610aaf579160200282015b82811115610aae5782518260006101000a81548173ffffffffffffffffffffffffffffffffffffffff021916908373ffffffffffffffffffffffffffffffffffffffff16021790555091602001919060010190610a56565b5b509050610abc9190610ac0565b5090565b5b80821115610ad9576000816000905550600101610ac1565b5090565b600080fd5b600073ffffffffffffffffffffffffffffffffffffffff82169050919050565b6000610b0d82610ae2565b9050919050565b610b1d81610b02565b8114610b2857600080fd5b50565b600081359050610b3a81610b14565b92915050565b600060208284031215610b5657610b55610add565b5b6000610b6484828501610b2b565b91505092915050565b6000819050919050565b610b8081610b6d565b82525050565b6000602082019050610b9b6000830184610b77565b92915050565b6000819050919050565b6000610bc6610bc1610bbc84610ae2565b610ba1565b610ae2565b9050919050565b6000610bd882610bab565b9050919050565b6000610bea82610bcd565b9050919050565b610bfa81610bdf565b82525050565b6000602082019050610c156000830184610bf1565b92915050565b610c2481610b02565b82525050565b6000602082019050610c3f6000830184610c1b565b92915050565b610c4e81610b6d565b8114610c5957600080fd5b50565b600081359050610c6b81610c45565b92915050565b600060208284031215610c8757610c86610add565b5b6000610c9584828501610c5c565b91505092915050565b7f4e487b7100000000000000000000000000000000000000000000000000000000600052603260045260246000fd5b7f4e487b7100000000000000000000000000000000000000000000000000000000600052601160045260246000fd5b6000610d0782610b6d565b91507fffffffffffffffffffffffffffffffffffffffffffffffffffffffffffffffff821415610d3a57610d39610ccd565b5b600182019050919050565b7f4e487b7100000000000000000000000000000000000000000000000000000000600052604160045260246000fd5b600081905092915050565b50565b6000610d8f600083610d74565b9150610d9a82610d7f565b600082019050919050565b6000610db082610d82565b9150819050919050565b600082825260208201905092915050565b7f43616c6c206661696c6564000000000000000000000000000000000000000000600082015250565b6000610e01600b83610dba565b9150610e0c82610dcb565b602082019050919050565b60006020820190508181036000830152610e3081610df4565b9050919050565b7f596f75206e65656420746f207370656e64206d6f726520455448000000000000600082015250565b6000610e6d601a83610dba565b9150610e7882610e37565b602082019050919050565b60006020820190508181036000830152610e9c81610e60565b9050919050565b6000610eae82610b6d565b9150610eb983610b6d565b9250827fffffffffffffffffffffffffffffffffffffffffffffffffffffffffffffffff03821115610eee57610eed610ccd565b5b828201905092915050565b6000610f0482610b6d565b9150610f0f83610b6d565b9250817fffffffffffffffffffffffffffffffffffffffffffffffffffffffffffffffff0483118215151615610f4857610f47610ccd565b5b828202905092915050565b7f4e487b7100000000000000000000000000000000000000000000000000000000600052601260045260246000fd5b6000610f8d82610b6d565b9150610f9883610b6d565b925082610fa857610fa7610f53565b5b828204905092915050565b600069ffffffffffffffffffff82169050919050565b610fd281610fb3565b8114610fdd57600080fd5b50565b600081519050610fef81610fc9565b92915050565b6000819050919050565b61100881610ff5565b811461101357600080fd5b50565b60008151905061102581610fff565b92915050565b60008151905061103a81610c45565b92915050565b600080600080600060a0868803121561105c5761105b610add565b5b600061106a88828901610fe0565b955050602061107b88828901611016565b945050604061108c8882890161102b565b935050606061109d8882890161102b565b92505060806110ae88828901610fe0565b9150509295509295909350565b60006110c682610ff5565b91506110d183610ff5565b9250827f7fffffffffffffffffffffffffffffffffffffffffffffffffffffffffffffff04821160008413600084131616156111105761110f610ccd565b5b817f8000000000000000000000000000000000000000000000000000000000000000058312600084126000841316161561114d5761114c610ccd565b5b827f8000000000000000000000000000000000000000000000000000000000000000058212600084136000841216161561118a57611189610ccd565b5b827f7fffffffffffffffffffffffffffffffffffffffffffffffffffffffffffffff05821260008412600084121616156111c7576111c6610ccd565b5b82820290509291505056fea26469706673582212209077ad7b333aa084fa2918df82d51ad095a1aa9ac5bd96f3d60472a032fd802d64736f6c63430008080033",
  "devdoc": {
    "author": "Mateus Akira",
    "details": "This implements priceFeeds as libraries",
    "kind": "dev",
    "methods": {
      "fund()": {
        "details": "This implements priceFeeds as libraries"
      }
    },
    "title": "A contract for crowdfunding",
    "version": 1
  },
  "userdoc": {
    "kind": "user",
    "methods": {
      "cheaperWithdraw()": {
        "notice": "instead of always keep reading from storage, what we gonna do is read the entire array into memore, 1 time. And then read from memory instead from constantly read from storage."
      },
      "fund()": {
        "notice": "This function funds this contract"
      },
      "getOwner()": {
        "notice": "We will make some getter functions in order to make easier to anyone that interacts with our API to read the variables because calling 'i_' ir 's_' is a bit strange for using the variables"
      }
    },
    "notice": "This contract is to demo a simple funding contract\"s_\" means that it's a storage variable, which consumes a lot of gas.\"i_\" is a good practice for immutable variablesfor constant variables, we use CAPSLOCK",
    "version": 1
  },
  "storageLayout": {
    "storage": [
      {
        "astId": 64,
        "contract": "contracts/FundMe.sol:FundMe",
        "label": "s_funders",
        "offset": 0,
        "slot": "0",
        "type": "t_array(t_address)dyn_storage"
      },
      {
        "astId": 68,
        "contract": "contracts/FundMe.sol:FundMe",
        "label": "s_addressToAmountFunded",
        "offset": 0,
        "slot": "1",
        "type": "t_mapping(t_address,t_uint256)"
      },
      {
        "astId": 73,
        "contract": "contracts/FundMe.sol:FundMe",
        "label": "s_priceFeed",
        "offset": 0,
        "slot": "2",
        "type": "t_contract(AggregatorV3Interface)45"
      }
    ],
    "types": {
      "t_address": {
        "encoding": "inplace",
        "label": "address",
        "numberOfBytes": "20"
      },
      "t_array(t_address)dyn_storage": {
        "base": "t_address",
        "encoding": "dynamic_array",
        "label": "address[]",
        "numberOfBytes": "32"
      },
      "t_contract(AggregatorV3Interface)45": {
        "encoding": "inplace",
        "label": "contract AggregatorV3Interface",
        "numberOfBytes": "20"
      },
      "t_mapping(t_address,t_uint256)": {
        "encoding": "mapping",
        "key": "t_address",
        "label": "mapping(address => uint256)",
        "numberOfBytes": "32",
        "value": "t_uint256"
      },
      "t_uint256": {
        "encoding": "inplace",
        "label": "uint256",
        "numberOfBytes": "32"
      }
    }
  }
}